{
    "contractName": "IdentityVerification",
    "abi": [
        {
            "inputs": [],
            "stateMutability": "nonpayable",
            "type": "constructor"
        },
        {
            "anonymous": false,
            "inputs": [
                {
                    "indexed": true,
                    "internalType": "address",
                    "name": "user",
                    "type": "address"
                }
            ],
            "name": "IdentityVerified",
            "type": "event"
        },
        {
            "inputs": [],
            "name": "admin",
            "outputs": [
                {
                    "internalType": "address",
                    "name": "",
                    "type": "address"
                }
            ],
            "stateMutability": "view",
            "type": "function"
        },
        {
            "inputs": [
                {
                    "internalType": "address",
                    "name": "_user",
                    "type": "address"
                }
            ],
            "name": "getIdentity",
            "outputs": [
                {
                    "internalType": "string",
                    "name": "",
                    "type": "string"
                },
                {
                    "internalType": "uint256",
                    "name": "",
                    "type": "uint256"
                },
                {
                    "internalType": "bool",
                    "name": "",
                    "type": "bool"
                }
            ],
            "stateMutability": "view",
            "type": "function"
        },
        {
            "inputs": [
                {
                    "internalType": "address",
                    "name": "",
                    "type": "address"
                }
            ],
            "name": "identities",
            "outputs": [
                {
                    "internalType": "string",
                    "name": "fullName",
                    "type": "string"
                },
                {
                    "internalType": "uint256",
                    "name": "idNumber",
                    "type": "uint256"
                },
                {
                    "internalType": "bool",
                    "name": "isVerified",
                    "type": "bool"
                }
            ],
            "stateMutability": "view",
            "type": "function"
        },
        {
            "inputs": [
                {
                    "internalType": "string",
                    "name": "_fullName",
                    "type": "string"
                },
                {
                    "internalType": "uint256",
                    "name": "_idNumber",
                    "type": "uint256"
                }
            ],
            "name": "registerIdentity",
            "outputs": [],
            "stateMutability": "nonpayable",
            "type": "function"
        },
        {
            "inputs": [
                {
                    "internalType": "address",
                    "name": "_user",
                    "type": "address"
                }
            ],
            "name": "verifyIdentity",
            "outputs": [],
            "stateMutability": "nonpayable",
            "type": "function"
        }
    ],
    "bytecode": "608060405234801561001057600080fd5b50600180546001600160a01b0319163317905561083f806100326000396000f3fe608060405234801561001057600080fd5b50600436106100575760003560e01c80630f54a9241461005c5780632fea7b8114610071578063b5b90fd91461009c578063f653b81e146100af578063f851a440146100c2575b600080fd5b61006f61006a36600461057d565b6100ed565b005b61008461007f366004610632565b6101fe565b60405161009393929190610662565b60405180910390f35b61006f6100aa366004610632565b6102fa565b6100846100bd366004610632565b6104b9565b6001546100d5906001600160a01b031681565b6040516001600160a01b039091168152602001610093565b6000811161014e5760405162461bcd60e51b815260206004820152602360248201527f4944206e756d626572206d7573742062652067726561746572207468616e207a60448201526265726f60e81b60648201526084015b60405180910390fd5b600082511161019f5760405162461bcd60e51b815260206004820152601b60248201527f46756c6c206e616d65206d757374206e6f7420626520656d70747900000000006044820152606401610145565b60408051606081018252838152602080820184905260008284018190523381529081905291909120815181906101d59082610749565b50602082015160018201556040909101516002909101805460ff19169115159190911790555050565b60606000806000806000866001600160a01b03166001600160a01b03168152602001908152602001600020604051806060016040529081600082018054610244906106c0565b80601f0160208091040260200160405190810160405280929190818152602001828054610270906106c0565b80156102bd5780601f10610292576101008083540402835291602001916102bd565b820191906000526020600020905b8154815290600101906020018083116102a057829003601f168201915b5050509183525050600182015460208083019190915260029092015460ff1615156040918201528251918301519201519097919650945092505050565b6001546001600160a01b0316331461035e5760405162461bcd60e51b815260206004820152602160248201527f4f6e6c792061646d696e2063616e2063616c6c20746869732066756e6374696f6044820152603760f91b6064820152608401610145565b6001600160a01b038116600090815260208190526040812080549091908290610386906106c0565b9050116103d55760405162461bcd60e51b815260206004820152601760248201527f4964656e74697479206e6f7420726567697374657265640000000000000000006044820152606401610145565b600081600101541161041d5760405162461bcd60e51b815260206004820152601160248201527024b73b30b634b21024a210373ab6b132b960791b6044820152606401610145565b600281015460ff16156104725760405162461bcd60e51b815260206004820152601960248201527f4964656e7469747920616c7265616479207665726966696564000000000000006044820152606401610145565b60028101805460ff191660011790556040516001600160a01b038316907f02f93fdaafad8edad1ca75101b1fbda62e64ab9afc26d0ea801ccf6ef02c09ab90600090a25050565b6000602081905290815260409020805481906104d4906106c0565b80601f0160208091040260200160405190810160405280929190818152602001828054610500906106c0565b801561054d5780601f106105225761010080835404028352916020019161054d565b820191906000526020600020905b81548152906001019060200180831161053057829003601f168201915b50505050600183015460029093015491929160ff16905083565b634e487b7160e01b600052604160045260246000fd5b6000806040838503121561059057600080fd5b823567ffffffffffffffff808211156105a857600080fd5b818501915085601f8301126105bc57600080fd5b8135818111156105ce576105ce610567565b604051601f8201601f19908116603f011681019083821181831017156105f6576105f6610567565b8160405282815288602084870101111561060f57600080fd5b826020860160208301376000602093820184015298969091013596505050505050565b60006020828403121561064457600080fd5b81356001600160a01b038116811461065b57600080fd5b9392505050565b606081526000845180606084015260005b818110156106905760208188018101516080868401015201610673565b506000608082850101526080601f19601f8301168401019150508360208301528215156040830152949350505050565b600181811c908216806106d457607f821691505b6020821081036106f457634e487b7160e01b600052602260045260246000fd5b50919050565b601f82111561074457600081815260208120601f850160051c810160208610156107215750805b601f850160051c820191505b818110156107405782815560010161072d565b5050505b505050565b815167ffffffffffffffff81111561076357610763610567565b6107778161077184546106c0565b846106fa565b602080601f8311600181146107ac57600084156107945750858301515b600019600386901b1c1916600185901b178555610740565b600085815260208120601f198616915b828110156107db578886015182559484019460019091019084016107bc565b50858210156107f95787850151600019600388901b60f8161c191681555b5050505050600190811b0190555056fea26469706673582212206dcf586d8c85a9435eaa6a4fbb279922fc354f53478fce497c72d33211cf766d64736f6c63430008130033",
    "sourcePath": "/Users/tasfia_ara/Web3AppsHAckathon2023/hedera-example-metamask-counter-dapp/src/contracts/Identity_Verification.sol",
    "compiler": {
        "name": "solc",
        "version": "0.8.19+commit.7dd6d404"
    },
    "functionHashes": {
        "admin()": "f851a440",
        "getIdentity(address)": "2fea7b81",
        "identities(address)": "f653b81e",
        "registerIdentity(string,uint256)": "0f54a924",
        "verifyIdentity(address)": "b5b90fd9"
    },
    "gasEstimates": {
        "creation": {
            "codeDepositCost": "422200",
            "executionCost": "24690",
            "totalCost": "446890"
        },
        "external": {
            "admin()": "2403",
            "getIdentity(address)": "infinite",
            "identities(address)": "infinite",
            "registerIdentity(string,uint256)": "infinite",
            "verifyIdentity(address)": "34442"
        }
    }
}